:100000000C9437000C94AD000C94C1000C94EB00E0
:100010000C94EB000C9461000C94EB000C94EB003E
:100020000C94EB000C94EB000C94EB000C94EB00A4
:100030000C94EB000C94EB000C94EB000C94EB0094
:100040000C94EB000C94EB000C94EB000C94EB0084
:100050000C94EB000C94EB000C94EB000C94EB0074
:100060000C94EB000C94EB000100010680001124BD
:100070001FBECFEFD8E0DEBFCDBFE8E6F0E040E046
:1000800017C0B591A59135912591059107FD0CC03B
:1000900095918591EF01F92FE82F05900D92A21708
:1000A000B307D9F7FE0104C01D92A217B307E1F709
:1000B000ED36F40731F70E9493000C94E000F894B9
:0200C000FFCF70
:1000C2001F920F920FB60F9211248F939F934A9B08
:1000D20007C081E090E0909305018093040104C081
:1000E200109205011092040181E090E090930301C7
:1000F200809302014B9B05C0909301018093000104
:1001020004C0109201011092000181E090E09093EE
:100112000301809302019F918F910F900FBE0F9068
:040122001F9018957D
:1001260081E087B90E94D500789480910201909170
:100136000301892B61F081E088B92FEF81EE94E00D
:10014600215080409040E1F700C0000018B880E0E0
:0401560090E0089598
:10015A001F920F920FB60F9211248F939F9381E0F3
:10016A0090E090930301809302019F918F910F90E9
:08017A000FBE0F901F901895B5
:100182001F920F920FB60F9211248F939F9381E0CB
:1001920090E090930301809302019F918F910F90C1
:0801A2000FBE0F901F9018958D
:1001AA00EDE6F0E080818C608083E8E6F0E0808113
:0601BA00846080830895BB
:1001C000EC010E94F0000E94EF00CE010E94F100BD
:0601D000CE010E94ED00CB
:0401D6000C94000085
:0401DA000E945F0020
:0201DE00089582
:0201E000089580
:0201E20008957E
:00000001FF
