:100000000C9434000C9440000C9471000C9471001A
:100010000C9471000C9471000C9471000C9471009C
:100020000C9471000C9471000C9471000C9471008C
:100030000C9471000C9471000C9471000C9471007C
:100040000C9471000C9471000C9471000C9471006C
:100050000C9471000C9471000C9471000C9471005C
:100060000C9471000C94710011241FBECFEFD8E0E6
:10007000DEBFCDBF0E9469000C945E00F894FFCFF4
:100080001F920F920FB60F9211242F938F939F936D
:1000900098B181E0892788B92FEF81EE94E0215053
:1000A00080409040E1F700C0000018B89F918F9108
:0C00B0002F910F900FBE0F901F9018951D
:1000BC00EC010E9476000E947500CE010E94770030
:0600CC00CE010E9473004A
:1000D20081E087B983E0809369008DBB7894FFCF7C
:0400E2000C9400007A
:0400E6000E943E0036
:0200EA00089577
:0200EC00089575
:0200EE00089573
:00000001FF
