:100000000C9434000C9465000C9465000C9465000D
:100010000C9465000C9465000C9465000C946500CC
:100020000C9465000C9465000C9465000C946500BC
:100030000C9465000C9465000C9465000C946500AC
:100040000C9465000C9465000C9465000C9465009C
:100050000C9465000C9465000C9465000C9465008C
:100060000C9465000C94650011241FBECFEFD8E0FE
:10007000DEBFCDBF0E9467000C945A00F894FFCFFA
:100080008AB188708AB984B18F6384B981E0880F9E
:10009000803809F481E04B9B02C085B901C015B8D6
:1000A0002FEF33EC99E0215030409040E1F700C051
:0400B0000000EDCF90
:1000B400EC010E946C000E946B00CE010E946D0056
:0600C400CE010E9469005C
:0400CA000C94000092
:0400CE000E9440004C
:0400D2000E943E004A
:0200D60008958B
:0200D800089589
:0200DA00089587
:00000001FF
