:100000000C9434000C9470000C9470000C947000EC
:100010000C9470000C9470000C9470000C947000A0
:100020000C9470000C9470000C9470000C94700090
:100030000C9470000C9470000C9470000C94700080
:100040000C9470000C9470000C9470000C94700070
:100050000C9470000C9470000C9470000C94700060
:100060000C9470000C94700011241FBECFEFD8E0E8
:10007000DEBFCDBF0E9440000C946500F894FFCF16
:1000800087B1846087B98AB188708AB94B9B19C0DF
:100090002FEF85EA9EE0215080409040E1F700C0BC
:1000A000000088B1846088B92FEF8DE292E2215080
:1000B00080409040E1F700C0000088B18B7F88B994
:0A00C000E5CF88B18B7F88B9E1CF4E
:1000CA00EC010E9475000E947400CE010E94760025
:0600DA00CE010E9472003D
:0400E0000C9400007C
:0400E4000E943E0038
:0200E800089579
:0200EA00089577
:0200EC00089575
:00000001FF
